{
	"contracts/Greeter.sol": {
		"Greeter": {
			"abi": [
				{
					"constant": true,
					"inputs": [],
					"name": "hello",
					"outputs": [
						{
							"name": "",
							"type": "string"
						}
					],
					"payable": false,
					"stateMutability": "view",
					"type": "function"
				},
				{
					"constant": false,
					"inputs": [
						{
							"name": "name",
							"type": "string"
						}
					],
					"name": "set",
					"outputs": [],
					"payable": false,
					"stateMutability": "nonpayable",
					"type": "function"
				},
				{
					"constant": true,
					"inputs": [],
					"name": "yourName",
					"outputs": [
						{
							"name": "",
							"type": "string"
						}
					],
					"payable": false,
					"stateMutability": "view",
					"type": "function"
				},
				{
					"inputs": [],
					"payable": false,
					"stateMutability": "nonpayable",
					"type": "constructor"
				}
			],
			"devdoc": {
				"methods": {}
			},
			"evm": {
				"assembly": "    /* \"contracts/Greeter.sol\":63:500  contract Greeter {\r... */\n  mstore(0x40, 0x80)\n    /* \"contracts/Greeter.sol\":224:294  function Greeter() public {\r... */\n  callvalue\n    /* \"--CODEGEN--\":8:17   */\n  dup1\n    /* \"--CODEGEN--\":5:7   */\n  iszero\n  tag_1\n  jumpi\n    /* \"--CODEGEN--\":30:31   */\n  0x0\n    /* \"--CODEGEN--\":27:28   */\n  dup1\n    /* \"--CODEGEN--\":20:32   */\n  revert\n    /* \"--CODEGEN--\":5:7   */\ntag_1:\n    /* \"contracts/Greeter.sol\":224:294  function Greeter() public {\r... */\n  pop\n    /* \"contracts/Greeter.sol\":261:286  yourName = \"Hello World!\" */\n  0x40\n  dup1\n  mload\n  swap1\n  dup2\n  add\n  0x40\n  mstore\n  dup1\n  0xc\n  dup2\n  mstore\n  0x20\n  add\n  0x48656c6c6f20576f726c64210000000000000000000000000000000000000000\n  dup2\n  mstore\n  pop\n    /* \"contracts/Greeter.sol\":261:269  yourName */\n  0x0\n    /* \"contracts/Greeter.sol\":261:286  yourName = \"Hello World!\" */\n  swap1\n  dup1\n  mload\n  swap1\n  0x20\n  add\n  swap1\n  tag_4\n  swap3\n  swap2\n  swap1\n  jump\t// in(tag_5)\ntag_4:\n  pop\n    /* \"contracts/Greeter.sol\":63:500  contract Greeter {\r... */\n  jump(tag_6)\ntag_5:\n  dup3\n  dup1\n  sload\n  0x1\n  dup2\n  0x1\n  and\n  iszero\n  0x100\n  mul\n  sub\n  and\n  0x2\n  swap1\n  div\n  swap1\n  0x0\n  mstore\n  keccak256(0x0, 0x20)\n  swap1\n  0x1f\n  add\n  0x20\n  swap1\n  div\n  dup2\n  add\n  swap3\n  dup3\n  0x1f\n  lt\n  tag_8\n  jumpi\n  dup1\n  mload\n  not(0xff)\n  and\n  dup4\n  dup1\n  add\n  or\n  dup6\n  sstore\n  jump(tag_7)\ntag_8:\n  dup3\n  dup1\n  add\n  0x1\n  add\n  dup6\n  sstore\n  dup3\n  iszero\n  tag_7\n  jumpi\n  swap2\n  dup3\n  add\ntag_9:\n  dup3\n  dup2\n  gt\n  iszero\n  tag_10\n  jumpi\n  dup3\n  mload\n  dup3\n  sstore\n  swap2\n  0x20\n  add\n  swap2\n  swap1\n  0x1\n  add\n  swap1\n  jump(tag_9)\ntag_10:\ntag_7:\n  pop\n  swap1\n  pop\n  tag_11\n  swap2\n  swap1\n  jump\t// in(tag_12)\ntag_11:\n  pop\n  swap1\n  jump\t// out\ntag_12:\n  tag_13\n  swap2\n  swap1\ntag_14:\n  dup1\n  dup3\n  gt\n  iszero\n  tag_15\n  jumpi\n  0x0\n  dup2\n  0x0\n  swap1\n  sstore\n  pop\n  0x1\n  add\n  jump(tag_14)\ntag_15:\n  pop\n  swap1\n  jump\ntag_13:\n  swap1\n  jump\t// out\ntag_6:\n  dataSize(sub_0)\n  dup1\n  dataOffset(sub_0)\n  0x0\n  codecopy\n  0x0\n  return\nstop\n\nsub_0: assembly {\n        /* \"contracts/Greeter.sol\":63:500  contract Greeter {\r... */\n      mstore(0x40, 0x80)\n      jumpi(tag_1, lt(calldatasize, 0x4))\n      calldataload(0x0)\n      0x100000000000000000000000000000000000000000000000000000000\n      swap1\n      div\n      0xffffffff\n      and\n      dup1\n      0x19ff1d21\n      eq\n      tag_2\n      jumpi\n      dup1\n      0x4ed3885e\n      eq\n      tag_3\n      jumpi\n      dup1\n      0xd97d6630\n      eq\n      tag_4\n      jumpi\n    tag_1:\n      0x0\n      dup1\n      revert\n        /* \"contracts/Greeter.sol\":413:497  function hello() constant public returns (string) {\r... */\n    tag_2:\n      callvalue\n        /* \"--CODEGEN--\":8:17   */\n      dup1\n        /* \"--CODEGEN--\":5:7   */\n      iszero\n      tag_5\n      jumpi\n        /* \"--CODEGEN--\":30:31   */\n      0x0\n        /* \"--CODEGEN--\":27:28   */\n      dup1\n        /* \"--CODEGEN--\":20:32   */\n      revert\n        /* \"--CODEGEN--\":5:7   */\n    tag_5:\n        /* \"contracts/Greeter.sol\":413:497  function hello() constant public returns (string) {\r... */\n      pop\n      tag_6\n      jump(tag_7)\n    tag_6:\n      mload(0x40)\n      tag_8\n      swap2\n      swap1\n      jump(tag_9)\n    tag_8:\n      mload(0x40)\n      dup1\n      swap2\n      sub\n      swap1\n      return\n        /* \"contracts/Greeter.sol\":302:405  function set(string name) public {\r... */\n    tag_3:\n      callvalue\n        /* \"--CODEGEN--\":8:17   */\n      dup1\n        /* \"--CODEGEN--\":5:7   */\n      iszero\n      tag_10\n      jumpi\n        /* \"--CODEGEN--\":30:31   */\n      0x0\n        /* \"--CODEGEN--\":27:28   */\n      dup1\n        /* \"--CODEGEN--\":20:32   */\n      revert\n        /* \"--CODEGEN--\":5:7   */\n    tag_10:\n        /* \"contracts/Greeter.sol\":302:405  function set(string name) public {\r... */\n      pop\n      tag_11\n      0x4\n      dup1\n      calldatasize\n      sub\n      tag_12\n      swap2\n      swap1\n      dup2\n      add\n      swap1\n      jump(tag_13)\n    tag_12:\n      jump(tag_14)\n    tag_11:\n      stop\n        /* \"contracts/Greeter.sol\":142:164  string public yourName */\n    tag_4:\n      callvalue\n        /* \"--CODEGEN--\":8:17   */\n      dup1\n        /* \"--CODEGEN--\":5:7   */\n      iszero\n      tag_15\n      jumpi\n        /* \"--CODEGEN--\":30:31   */\n      0x0\n        /* \"--CODEGEN--\":27:28   */\n      dup1\n        /* \"--CODEGEN--\":20:32   */\n      revert\n        /* \"--CODEGEN--\":5:7   */\n    tag_15:\n        /* \"contracts/Greeter.sol\":142:164  string public yourName */\n      pop\n      tag_16\n      jump(tag_17)\n    tag_16:\n      mload(0x40)\n      tag_18\n      swap2\n      swap1\n      jump(tag_19)\n    tag_18:\n      mload(0x40)\n      dup1\n      swap2\n      sub\n      swap1\n      return\n        /* \"contracts/Greeter.sol\":413:497  function hello() constant public returns (string) {\r... */\n    tag_7:\n        /* \"contracts/Greeter.sol\":455:461  string */\n      0x60\n        /* \"contracts/Greeter.sol\":481:489  yourName */\n      0x0\n        /* \"contracts/Greeter.sol\":474:489  return yourName */\n      dup1\n      sload\n      0x1\n      dup2\n      0x1\n      and\n      iszero\n      0x100\n      mul\n      sub\n      and\n      0x2\n      swap1\n      div\n      dup1\n      0x1f\n      add\n      0x20\n      dup1\n      swap2\n      div\n      mul\n      0x20\n      add\n      mload(0x40)\n      swap1\n      dup2\n      add\n      0x40\n      mstore\n      dup1\n      swap3\n      swap2\n      swap1\n      dup2\n      dup2\n      mstore\n      0x20\n      add\n      dup3\n      dup1\n      sload\n      0x1\n      dup2\n      0x1\n      and\n      iszero\n      0x100\n      mul\n      sub\n      and\n      0x2\n      swap1\n      div\n      dup1\n      iszero\n      tag_21\n      jumpi\n      dup1\n      0x1f\n      lt\n      tag_22\n      jumpi\n      0x100\n      dup1\n      dup4\n      sload\n      div\n      mul\n      dup4\n      mstore\n      swap2\n      0x20\n      add\n      swap2\n      jump(tag_21)\n    tag_22:\n      dup3\n      add\n      swap2\n      swap1\n      0x0\n      mstore\n      keccak256(0x0, 0x20)\n      swap1\n    tag_23:\n      dup2\n      sload\n      dup2\n      mstore\n      swap1\n      0x1\n      add\n      swap1\n      0x20\n      add\n      dup1\n      dup4\n      gt\n      tag_23\n      jumpi\n      dup3\n      swap1\n      sub\n      0x1f\n      and\n      dup3\n      add\n      swap2\n    tag_21:\n      pop\n      pop\n      pop\n      pop\n      pop\n      swap1\n      pop\n        /* \"contracts/Greeter.sol\":413:497  function hello() constant public returns (string) {\r... */\n      swap1\n      jump\t// out\n        /* \"contracts/Greeter.sol\":302:405  function set(string name) public {\r... */\n    tag_14:\n        /* \"contracts/Greeter.sol\":391:395  name */\n      dup1\n        /* \"contracts/Greeter.sol\":364:396  abi.encodePacked(\"Hello \", name) */\n      add(0x20, mload(0x40))\n      dup1\n      dup1\n      0x48656c6c6f200000000000000000000000000000000000000000000000000000\n      dup2\n      mstore\n      pop\n      0x6\n      add\n      dup3\n      dup1\n      mload\n      swap1\n      0x20\n      add\n      swap1\n      dup1\n      dup4\n      dup4\n        /* \"--CODEGEN--\":36:189   */\n    tag_25:\n        /* \"--CODEGEN--\":66:68   */\n      0x20\n        /* \"--CODEGEN--\":61:64   */\n      dup4\n        /* \"--CODEGEN--\":58:69   */\n      lt\n        /* \"--CODEGEN--\":51:70   */\n      iszero\n        /* \"--CODEGEN--\":36:189   */\n      iszero\n      tag_26\n      jumpi\n        /* \"--CODEGEN--\":182:185   */\n      dup1\n        /* \"--CODEGEN--\":176:186   */\n      mload\n        /* \"--CODEGEN--\":171:174   */\n      dup3\n        /* \"--CODEGEN--\":164:187   */\n      mstore\n        /* \"--CODEGEN--\":98:100   */\n      0x20\n        /* \"--CODEGEN--\":93:96   */\n      dup3\n        /* \"--CODEGEN--\":89:101   */\n      add\n        /* \"--CODEGEN--\":82:101   */\n      swap2\n      pop\n        /* \"--CODEGEN--\":123:125   */\n      0x20\n        /* \"--CODEGEN--\":118:121   */\n      dup2\n        /* \"--CODEGEN--\":114:126   */\n      add\n        /* \"--CODEGEN--\":107:126   */\n      swap1\n      pop\n        /* \"--CODEGEN--\":148:150   */\n      0x20\n        /* \"--CODEGEN--\":143:146   */\n      dup4\n        /* \"--CODEGEN--\":139:151   */\n      sub\n        /* \"--CODEGEN--\":132:151   */\n      swap3\n      pop\n        /* \"--CODEGEN--\":36:189   */\n      jump(tag_25)\n    tag_26:\n        /* \"--CODEGEN--\":274:275   */\n      0x1\n        /* \"--CODEGEN--\":267:270   */\n      dup4\n        /* \"--CODEGEN--\":263:265   */\n      0x20\n        /* \"--CODEGEN--\":259:271   */\n      sub\n        /* \"--CODEGEN--\":254:257   */\n      0x100\n        /* \"--CODEGEN--\":250:272   */\n      exp\n        /* \"--CODEGEN--\":246:276   */\n      sub\n        /* \"--CODEGEN--\":315:319   */\n      dup1\n        /* \"--CODEGEN--\":311:320   */\n      not\n        /* \"--CODEGEN--\":305:308   */\n      dup3\n        /* \"--CODEGEN--\":299:309   */\n      mload\n        /* \"--CODEGEN--\":295:321   */\n      and\n        /* \"--CODEGEN--\":356:360   */\n      dup2\n        /* \"--CODEGEN--\":350:353   */\n      dup5\n        /* \"--CODEGEN--\":344:354   */\n      mload\n        /* \"--CODEGEN--\":340:361   */\n      and\n        /* \"--CODEGEN--\":389:396   */\n      dup1\n        /* \"--CODEGEN--\":380:387   */\n      dup3\n        /* \"--CODEGEN--\":377:397   */\n      or\n        /* \"--CODEGEN--\":372:375   */\n      dup6\n        /* \"--CODEGEN--\":365:398   */\n      mstore\n        /* \"--CODEGEN--\":3:402   */\n      pop\n      pop\n      pop\n        /* \"contracts/Greeter.sol\":364:396  abi.encodePacked(\"Hello \", name) */\n      pop\n      pop\n      pop\n      swap1\n      pop\n      add\n      swap2\n      pop\n      pop\n      mload(0x40)\n        /* \"--CODEGEN--\":49:53   */\n      0x20\n        /* \"--CODEGEN--\":39:46   */\n      dup2\n        /* \"--CODEGEN--\":30:37   */\n      dup4\n        /* \"--CODEGEN--\":26:47   */\n      sub\n        /* \"--CODEGEN--\":22:54   */\n      sub\n        /* \"--CODEGEN--\":13:20   */\n      dup2\n        /* \"--CODEGEN--\":6:55   */\n      mstore\n        /* \"contracts/Greeter.sol\":364:396  abi.encodePacked(\"Hello \", name) */\n      swap1\n      0x40\n      mstore\n        /* \"contracts/Greeter.sol\":346:354  yourName */\n      0x0\n        /* \"contracts/Greeter.sol\":346:397  yourName = string(abi.encodePacked(\"Hello \", name)) */\n      swap1\n      dup1\n      mload\n      swap1\n      0x20\n      add\n      swap1\n      tag_28\n      swap3\n      swap2\n      swap1\n      jump\t// in(tag_29)\n    tag_28:\n      pop\n        /* \"contracts/Greeter.sol\":302:405  function set(string name) public {\r... */\n      pop\n      jump\t// out\n        /* \"contracts/Greeter.sol\":142:164  string public yourName */\n    tag_17:\n      0x0\n      dup1\n      sload\n      0x1\n      dup2\n      0x1\n      and\n      iszero\n      0x100\n      mul\n      sub\n      and\n      0x2\n      swap1\n      div\n      dup1\n      0x1f\n      add\n      0x20\n      dup1\n      swap2\n      div\n      mul\n      0x20\n      add\n      mload(0x40)\n      swap1\n      dup2\n      add\n      0x40\n      mstore\n      dup1\n      swap3\n      swap2\n      swap1\n      dup2\n      dup2\n      mstore\n      0x20\n      add\n      dup3\n      dup1\n      sload\n      0x1\n      dup2\n      0x1\n      and\n      iszero\n      0x100\n      mul\n      sub\n      and\n      0x2\n      swap1\n      div\n      dup1\n      iszero\n      tag_30\n      jumpi\n      dup1\n      0x1f\n      lt\n      tag_31\n      jumpi\n      0x100\n      dup1\n      dup4\n      sload\n      div\n      mul\n      dup4\n      mstore\n      swap2\n      0x20\n      add\n      swap2\n      jump(tag_30)\n    tag_31:\n      dup3\n      add\n      swap2\n      swap1\n      0x0\n      mstore\n      keccak256(0x0, 0x20)\n      swap1\n    tag_32:\n      dup2\n      sload\n      dup2\n      mstore\n      swap1\n      0x1\n      add\n      swap1\n      0x20\n      add\n      dup1\n      dup4\n      gt\n      tag_32\n      jumpi\n      dup3\n      swap1\n      sub\n      0x1f\n      and\n      dup3\n      add\n      swap2\n    tag_30:\n      pop\n      pop\n      pop\n      pop\n      pop\n      dup2\n      jump\t// out\n        /* \"contracts/Greeter.sol\":63:500  contract Greeter {\r... */\n    tag_29:\n      dup3\n      dup1\n      sload\n      0x1\n      dup2\n      0x1\n      and\n      iszero\n      0x100\n      mul\n      sub\n      and\n      0x2\n      swap1\n      div\n      swap1\n      0x0\n      mstore\n      keccak256(0x0, 0x20)\n      swap1\n      0x1f\n      add\n      0x20\n      swap1\n      div\n      dup2\n      add\n      swap3\n      dup3\n      0x1f\n      lt\n      tag_34\n      jumpi\n      dup1\n      mload\n      not(0xff)\n      and\n      dup4\n      dup1\n      add\n      or\n      dup6\n      sstore\n      jump(tag_33)\n    tag_34:\n      dup3\n      dup1\n      add\n      0x1\n      add\n      dup6\n      sstore\n      dup3\n      iszero\n      tag_33\n      jumpi\n      swap2\n      dup3\n      add\n    tag_35:\n      dup3\n      dup2\n      gt\n      iszero\n      tag_36\n      jumpi\n      dup3\n      mload\n      dup3\n      sstore\n      swap2\n      0x20\n      add\n      swap2\n      swap1\n      0x1\n      add\n      swap1\n      jump(tag_35)\n    tag_36:\n    tag_33:\n      pop\n      swap1\n      pop\n      tag_37\n      swap2\n      swap1\n      jump\t// in(tag_38)\n    tag_37:\n      pop\n      swap1\n      jump\t// out\n    tag_38:\n      tag_39\n      swap2\n      swap1\n    tag_40:\n      dup1\n      dup3\n      gt\n      iszero\n      tag_41\n      jumpi\n      0x0\n      dup2\n      0x0\n      swap1\n      sstore\n      pop\n      0x1\n      add\n      jump(tag_40)\n    tag_41:\n      pop\n      swap1\n      jump\n    tag_39:\n      swap1\n      jump\t// out\n        /* \"--CODEGEN--\":6:448   */\n    tag_43:\n      0x0\n        /* \"--CODEGEN--\":108:111   */\n      dup3\n        /* \"--CODEGEN--\":101:105   */\n      0x1f\n        /* \"--CODEGEN--\":93:99   */\n      dup4\n        /* \"--CODEGEN--\":89:106   */\n      add\n        /* \"--CODEGEN--\":85:112   */\n      slt\n        /* \"--CODEGEN--\":78:113   */\n      iszero\n        /* \"--CODEGEN--\":75:77   */\n      iszero\n      tag_44\n      jumpi\n        /* \"--CODEGEN--\":126:127   */\n      0x0\n        /* \"--CODEGEN--\":123:124   */\n      dup1\n        /* \"--CODEGEN--\":116:128   */\n      revert\n        /* \"--CODEGEN--\":75:77   */\n    tag_44:\n        /* \"--CODEGEN--\":163:169   */\n      dup2\n        /* \"--CODEGEN--\":150:170   */\n      calldataload\n        /* \"--CODEGEN--\":185:250   */\n      tag_45\n        /* \"--CODEGEN--\":200:249   */\n      tag_46\n        /* \"--CODEGEN--\":242:248   */\n      dup3\n        /* \"--CODEGEN--\":200:249   */\n      jump(tag_47)\n    tag_46:\n        /* \"--CODEGEN--\":185:250   */\n      jump(tag_48)\n    tag_45:\n        /* \"--CODEGEN--\":176:250   */\n      swap2\n      pop\n        /* \"--CODEGEN--\":270:276   */\n      dup1\n        /* \"--CODEGEN--\":263:268   */\n      dup3\n        /* \"--CODEGEN--\":256:277   */\n      mstore\n        /* \"--CODEGEN--\":306:310   */\n      0x20\n        /* \"--CODEGEN--\":298:304   */\n      dup4\n        /* \"--CODEGEN--\":294:311   */\n      add\n        /* \"--CODEGEN--\":339:343   */\n      0x20\n        /* \"--CODEGEN--\":332:337   */\n      dup4\n        /* \"--CODEGEN--\":328:344   */\n      add\n        /* \"--CODEGEN--\":374:377   */\n      dup6\n        /* \"--CODEGEN--\":365:371   */\n      dup4\n        /* \"--CODEGEN--\":360:363   */\n      dup4\n        /* \"--CODEGEN--\":356:372   */\n      add\n        /* \"--CODEGEN--\":353:378   */\n      gt\n        /* \"--CODEGEN--\":350:352   */\n      iszero\n      tag_49\n      jumpi\n        /* \"--CODEGEN--\":391:392   */\n      0x0\n        /* \"--CODEGEN--\":388:389   */\n      dup1\n        /* \"--CODEGEN--\":381:393   */\n      revert\n        /* \"--CODEGEN--\":350:352   */\n    tag_49:\n        /* \"--CODEGEN--\":401:442   */\n      tag_50\n        /* \"--CODEGEN--\":435:441   */\n      dup4\n        /* \"--CODEGEN--\":430:433   */\n      dup3\n        /* \"--CODEGEN--\":425:428   */\n      dup5\n        /* \"--CODEGEN--\":401:442   */\n      jump(tag_51)\n    tag_50:\n        /* \"--CODEGEN--\":68:448   */\n      pop\n      pop\n      pop\n      swap3\n      swap2\n      pop\n      pop\n      jump\n        /* \"--CODEGEN--\":456:803   */\n    tag_13:\n      0x0\n        /* \"--CODEGEN--\":570:572   */\n      0x20\n        /* \"--CODEGEN--\":558:567   */\n      dup3\n        /* \"--CODEGEN--\":549:556   */\n      dup5\n        /* \"--CODEGEN--\":545:568   */\n      sub\n        /* \"--CODEGEN--\":541:573   */\n      slt\n        /* \"--CODEGEN--\":538:540   */\n      iszero\n      tag_53\n      jumpi\n        /* \"--CODEGEN--\":586:587   */\n      0x0\n        /* \"--CODEGEN--\":583:584   */\n      dup1\n        /* \"--CODEGEN--\":576:588   */\n      revert\n        /* \"--CODEGEN--\":538:540   */\n    tag_53:\n        /* \"--CODEGEN--\":649:650   */\n      0x0\n        /* \"--CODEGEN--\":638:647   */\n      dup3\n        /* \"--CODEGEN--\":634:651   */\n      add\n        /* \"--CODEGEN--\":621:652   */\n      calldataload\n        /* \"--CODEGEN--\":672:690   */\n      0xffffffffffffffff\n        /* \"--CODEGEN--\":664:670   */\n      dup2\n        /* \"--CODEGEN--\":661:691   */\n      gt\n        /* \"--CODEGEN--\":658:660   */\n      iszero\n      tag_54\n      jumpi\n        /* \"--CODEGEN--\":704:705   */\n      0x0\n        /* \"--CODEGEN--\":701:702   */\n      dup1\n        /* \"--CODEGEN--\":694:706   */\n      revert\n        /* \"--CODEGEN--\":658:660   */\n    tag_54:\n        /* \"--CODEGEN--\":724:787   */\n      tag_55\n        /* \"--CODEGEN--\":779:786   */\n      dup5\n        /* \"--CODEGEN--\":770:776   */\n      dup3\n        /* \"--CODEGEN--\":759:768   */\n      dup6\n        /* \"--CODEGEN--\":755:777   */\n      add\n        /* \"--CODEGEN--\":724:787   */\n      jump(tag_43)\n    tag_55:\n        /* \"--CODEGEN--\":714:787   */\n      swap2\n      pop\n        /* \"--CODEGEN--\":600:793   */\n      pop\n        /* \"--CODEGEN--\":532:803   */\n      swap3\n      swap2\n      pop\n      pop\n      jump\n        /* \"--CODEGEN--\":810:1110   */\n    tag_57:\n      0x0\n        /* \"--CODEGEN--\":912:951   */\n      tag_58\n        /* \"--CODEGEN--\":945:950   */\n      dup3\n        /* \"--CODEGEN--\":912:951   */\n      jump(tag_59)\n    tag_58:\n        /* \"--CODEGEN--\":968:974   */\n      dup1\n        /* \"--CODEGEN--\":963:966   */\n      dup5\n        /* \"--CODEGEN--\":956:975   */\n      mstore\n        /* \"--CODEGEN--\":980:1043   */\n      tag_60\n        /* \"--CODEGEN--\":1036:1042   */\n      dup2\n        /* \"--CODEGEN--\":1029:1033   */\n      0x20\n        /* \"--CODEGEN--\":1024:1027   */\n      dup7\n        /* \"--CODEGEN--\":1020:1034   */\n      add\n        /* \"--CODEGEN--\":1013:1017   */\n      0x20\n        /* \"--CODEGEN--\":1006:1011   */\n      dup7\n        /* \"--CODEGEN--\":1002:1018   */\n      add\n        /* \"--CODEGEN--\":980:1043   */\n      jump(tag_61)\n    tag_60:\n        /* \"--CODEGEN--\":1075:1104   */\n      tag_62\n        /* \"--CODEGEN--\":1097:1103   */\n      dup2\n        /* \"--CODEGEN--\":1075:1104   */\n      jump(tag_63)\n    tag_62:\n        /* \"--CODEGEN--\":1068:1072   */\n      0x20\n        /* \"--CODEGEN--\":1063:1066   */\n      dup6\n        /* \"--CODEGEN--\":1059:1073   */\n      add\n        /* \"--CODEGEN--\":1055:1105   */\n      add\n        /* \"--CODEGEN--\":1048:1105   */\n      swap2\n      pop\n        /* \"--CODEGEN--\":892:1110   */\n      pop\n      swap3\n      swap2\n      pop\n      pop\n      jump\n        /* \"--CODEGEN--\":1117:1409   */\n    tag_65:\n      0x0\n        /* \"--CODEGEN--\":1215:1250   */\n      tag_66\n        /* \"--CODEGEN--\":1244:1249   */\n      dup3\n        /* \"--CODEGEN--\":1215:1250   */\n      jump(tag_67)\n    tag_66:\n        /* \"--CODEGEN--\":1267:1273   */\n      dup1\n        /* \"--CODEGEN--\":1262:1265   */\n      dup5\n        /* \"--CODEGEN--\":1255:1274   */\n      mstore\n        /* \"--CODEGEN--\":1279:1342   */\n      tag_68\n        /* \"--CODEGEN--\":1335:1341   */\n      dup2\n        /* \"--CODEGEN--\":1328:1332   */\n      0x20\n        /* \"--CODEGEN--\":1323:1326   */\n      dup7\n        /* \"--CODEGEN--\":1319:1333   */\n      add\n        /* \"--CODEGEN--\":1312:1316   */\n      0x20\n        /* \"--CODEGEN--\":1305:1310   */\n      dup7\n        /* \"--CODEGEN--\":1301:1317   */\n      add\n        /* \"--CODEGEN--\":1279:1342   */\n      jump(tag_61)\n    tag_68:\n        /* \"--CODEGEN--\":1374:1403   */\n      tag_69\n        /* \"--CODEGEN--\":1396:1402   */\n      dup2\n        /* \"--CODEGEN--\":1374:1403   */\n      jump(tag_63)\n    tag_69:\n        /* \"--CODEGEN--\":1367:1371   */\n      0x20\n        /* \"--CODEGEN--\":1362:1365   */\n      dup6\n        /* \"--CODEGEN--\":1358:1372   */\n      add\n        /* \"--CODEGEN--\":1354:1404   */\n      add\n        /* \"--CODEGEN--\":1347:1404   */\n      swap2\n      pop\n        /* \"--CODEGEN--\":1195:1409   */\n      pop\n      swap3\n      swap2\n      pop\n      pop\n      jump\n        /* \"--CODEGEN--\":1416:1689   */\n    tag_19:\n      0x0\n        /* \"--CODEGEN--\":1540:1542   */\n      0x20\n        /* \"--CODEGEN--\":1529:1538   */\n      dup3\n        /* \"--CODEGEN--\":1525:1543   */\n      add\n        /* \"--CODEGEN--\":1517:1543   */\n      swap1\n      pop\n        /* \"--CODEGEN--\":1590:1599   */\n      dup2\n        /* \"--CODEGEN--\":1584:1588   */\n      dup2\n        /* \"--CODEGEN--\":1580:1600   */\n      sub\n        /* \"--CODEGEN--\":1576:1577   */\n      0x0\n        /* \"--CODEGEN--\":1565:1574   */\n      dup4\n        /* \"--CODEGEN--\":1561:1578   */\n      add\n        /* \"--CODEGEN--\":1554:1601   */\n      mstore\n        /* \"--CODEGEN--\":1615:1679   */\n      tag_71\n        /* \"--CODEGEN--\":1674:1678   */\n      dup2\n        /* \"--CODEGEN--\":1665:1671   */\n      dup5\n        /* \"--CODEGEN--\":1615:1679   */\n      jump(tag_65)\n    tag_71:\n        /* \"--CODEGEN--\":1607:1679   */\n      swap1\n      pop\n        /* \"--CODEGEN--\":1511:1689   */\n      swap3\n      swap2\n      pop\n      pop\n      jump\n        /* \"--CODEGEN--\":1696:1977   */\n    tag_9:\n      0x0\n        /* \"--CODEGEN--\":1824:1826   */\n      0x20\n        /* \"--CODEGEN--\":1813:1822   */\n      dup3\n        /* \"--CODEGEN--\":1809:1827   */\n      add\n        /* \"--CODEGEN--\":1801:1827   */\n      swap1\n      pop\n        /* \"--CODEGEN--\":1874:1883   */\n      dup2\n        /* \"--CODEGEN--\":1868:1872   */\n      dup2\n        /* \"--CODEGEN--\":1864:1884   */\n      sub\n        /* \"--CODEGEN--\":1860:1861   */\n      0x0\n        /* \"--CODEGEN--\":1849:1858   */\n      dup4\n        /* \"--CODEGEN--\":1845:1862   */\n      add\n        /* \"--CODEGEN--\":1838:1885   */\n      mstore\n        /* \"--CODEGEN--\":1899:1967   */\n      tag_73\n        /* \"--CODEGEN--\":1962:1966   */\n      dup2\n        /* \"--CODEGEN--\":1953:1959   */\n      dup5\n        /* \"--CODEGEN--\":1899:1967   */\n      jump(tag_57)\n    tag_73:\n        /* \"--CODEGEN--\":1891:1967   */\n      swap1\n      pop\n        /* \"--CODEGEN--\":1795:1977   */\n      swap3\n      swap2\n      pop\n      pop\n      jump\n        /* \"--CODEGEN--\":1984:2240   */\n    tag_48:\n      0x0\n        /* \"--CODEGEN--\":2046:2048   */\n      0x40\n        /* \"--CODEGEN--\":2040:2049   */\n      mload\n        /* \"--CODEGEN--\":2030:2049   */\n      swap1\n      pop\n        /* \"--CODEGEN--\":2084:2088   */\n      dup2\n        /* \"--CODEGEN--\":2076:2082   */\n      dup2\n        /* \"--CODEGEN--\":2072:2089   */\n      add\n        /* \"--CODEGEN--\":2183:2189   */\n      dup2\n        /* \"--CODEGEN--\":2171:2181   */\n      dup2\n        /* \"--CODEGEN--\":2168:2190   */\n      lt\n        /* \"--CODEGEN--\":2147:2165   */\n      0xffffffffffffffff\n        /* \"--CODEGEN--\":2135:2145   */\n      dup3\n        /* \"--CODEGEN--\":2132:2166   */\n      gt\n        /* \"--CODEGEN--\":2129:2191   */\n      or\n        /* \"--CODEGEN--\":2126:2128   */\n      iszero\n      tag_75\n      jumpi\n        /* \"--CODEGEN--\":2204:2205   */\n      0x0\n        /* \"--CODEGEN--\":2201:2202   */\n      dup1\n        /* \"--CODEGEN--\":2194:2206   */\n      revert\n        /* \"--CODEGEN--\":2126:2128   */\n    tag_75:\n        /* \"--CODEGEN--\":2224:2234   */\n      dup1\n        /* \"--CODEGEN--\":2220:2222   */\n      0x40\n        /* \"--CODEGEN--\":2213:2235   */\n      mstore\n        /* \"--CODEGEN--\":2024:2240   */\n      pop\n      swap2\n      swap1\n      pop\n      jump\n        /* \"--CODEGEN--\":2247:2506   */\n    tag_47:\n      0x0\n        /* \"--CODEGEN--\":2391:2409   */\n      0xffffffffffffffff\n        /* \"--CODEGEN--\":2383:2389   */\n      dup3\n        /* \"--CODEGEN--\":2380:2410   */\n      gt\n        /* \"--CODEGEN--\":2377:2379   */\n      iszero\n      tag_77\n      jumpi\n        /* \"--CODEGEN--\":2423:2424   */\n      0x0\n        /* \"--CODEGEN--\":2420:2421   */\n      dup1\n        /* \"--CODEGEN--\":2413:2425   */\n      revert\n        /* \"--CODEGEN--\":2377:2379   */\n    tag_77:\n        /* \"--CODEGEN--\":2467:2471   */\n      0x1f\n        /* \"--CODEGEN--\":2463:2472   */\n      not\n        /* \"--CODEGEN--\":2456:2460   */\n      0x1f\n        /* \"--CODEGEN--\":2448:2454   */\n      dup4\n        /* \"--CODEGEN--\":2444:2461   */\n      add\n        /* \"--CODEGEN--\":2440:2473   */\n      and\n        /* \"--CODEGEN--\":2432:2473   */\n      swap1\n      pop\n        /* \"--CODEGEN--\":2496:2500   */\n      0x20\n        /* \"--CODEGEN--\":2490:2494   */\n      dup2\n        /* \"--CODEGEN--\":2486:2501   */\n      add\n        /* \"--CODEGEN--\":2478:2501   */\n      swap1\n      pop\n        /* \"--CODEGEN--\":2314:2506   */\n      swap2\n      swap1\n      pop\n      jump\n        /* \"--CODEGEN--\":2513:2601   */\n    tag_67:\n      0x0\n        /* \"--CODEGEN--\":2590:2595   */\n      dup2\n        /* \"--CODEGEN--\":2584:2596   */\n      mload\n        /* \"--CODEGEN--\":2574:2596   */\n      swap1\n      pop\n        /* \"--CODEGEN--\":2568:2601   */\n      swap2\n      swap1\n      pop\n      jump\n        /* \"--CODEGEN--\":2608:2700   */\n    tag_59:\n      0x0\n        /* \"--CODEGEN--\":2689:2694   */\n      dup2\n        /* \"--CODEGEN--\":2683:2695   */\n      mload\n        /* \"--CODEGEN--\":2673:2695   */\n      swap1\n      pop\n        /* \"--CODEGEN--\":2667:2700   */\n      swap2\n      swap1\n      pop\n      jump\n        /* \"--CODEGEN--\":2708:2853   */\n    tag_51:\n        /* \"--CODEGEN--\":2789:2795   */\n      dup3\n        /* \"--CODEGEN--\":2784:2787   */\n      dup2\n        /* \"--CODEGEN--\":2779:2782   */\n      dup4\n        /* \"--CODEGEN--\":2766:2796   */\n      calldatacopy\n        /* \"--CODEGEN--\":2845:2846   */\n      0x0\n        /* \"--CODEGEN--\":2836:2842   */\n      dup4\n        /* \"--CODEGEN--\":2831:2834   */\n      dup4\n        /* \"--CODEGEN--\":2827:2843   */\n      add\n        /* \"--CODEGEN--\":2820:2847   */\n      mstore\n        /* \"--CODEGEN--\":2759:2853   */\n      pop\n      pop\n      pop\n      jump\n        /* \"--CODEGEN--\":2862:3130   */\n    tag_61:\n        /* \"--CODEGEN--\":2927:2928   */\n      0x0\n        /* \"--CODEGEN--\":2934:3035   */\n    tag_82:\n        /* \"--CODEGEN--\":2948:2954   */\n      dup4\n        /* \"--CODEGEN--\":2945:2946   */\n      dup2\n        /* \"--CODEGEN--\":2942:2955   */\n      lt\n        /* \"--CODEGEN--\":2934:3035   */\n      iszero\n      tag_83\n      jumpi\n        /* \"--CODEGEN--\":3024:3025   */\n      dup1\n        /* \"--CODEGEN--\":3019:3022   */\n      dup3\n        /* \"--CODEGEN--\":3015:3026   */\n      add\n        /* \"--CODEGEN--\":3009:3027   */\n      mload\n        /* \"--CODEGEN--\":3005:3006   */\n      dup2\n        /* \"--CODEGEN--\":3000:3003   */\n      dup5\n        /* \"--CODEGEN--\":2996:3007   */\n      add\n        /* \"--CODEGEN--\":2989:3028   */\n      mstore\n        /* \"--CODEGEN--\":2970:2972   */\n      0x20\n        /* \"--CODEGEN--\":2967:2968   */\n      dup2\n        /* \"--CODEGEN--\":2963:2973   */\n      add\n        /* \"--CODEGEN--\":2958:2973   */\n      swap1\n      pop\n        /* \"--CODEGEN--\":2934:3035   */\n      jump(tag_82)\n    tag_83:\n        /* \"--CODEGEN--\":3050:3056   */\n      dup4\n        /* \"--CODEGEN--\":3047:3048   */\n      dup2\n        /* \"--CODEGEN--\":3044:3057   */\n      gt\n        /* \"--CODEGEN--\":3041:3043   */\n      iszero\n      tag_85\n      jumpi\n        /* \"--CODEGEN--\":3115:3116   */\n      0x0\n        /* \"--CODEGEN--\":3106:3112   */\n      dup5\n        /* \"--CODEGEN--\":3101:3104   */\n      dup5\n        /* \"--CODEGEN--\":3097:3113   */\n      add\n        /* \"--CODEGEN--\":3090:3117   */\n      mstore\n        /* \"--CODEGEN--\":3041:3043   */\n    tag_85:\n        /* \"--CODEGEN--\":2911:3130   */\n      pop\n      pop\n      pop\n      pop\n      jump\n        /* \"--CODEGEN--\":3138:3235   */\n    tag_63:\n      0x0\n        /* \"--CODEGEN--\":3226:3228   */\n      0x1f\n        /* \"--CODEGEN--\":3222:3229   */\n      not\n        /* \"--CODEGEN--\":3217:3219   */\n      0x1f\n        /* \"--CODEGEN--\":3210:3215   */\n      dup4\n        /* \"--CODEGEN--\":3206:3220   */\n      add\n        /* \"--CODEGEN--\":3202:3230   */\n      and\n        /* \"--CODEGEN--\":3192:3230   */\n      swap1\n      pop\n        /* \"--CODEGEN--\":3186:3235   */\n      swap2\n      swap1\n      pop\n      jump\n\n    auxdata: 0xa265627a7a7230582082398a51bd9765037874de7b1b747f275081780378b03b910a0a02e7db577c6c6c6578706572696d656e74616cf50037\n}\n",
				"bytecode": {
					"linkReferences": {},
					"object": "608060405234801561001057600080fd5b506040805190810160405280600c81526020017f48656c6c6f20576f726c642100000000000000000000000000000000000000008152506000908051906020019061005c929190610062565b50610107565b828054600181600116156101000203166002900490600052602060002090601f016020900481019282601f106100a357805160ff19168380011785556100d1565b828001600101855582156100d1579182015b828111156100d05782518255916020019190600101906100b5565b5b5090506100de91906100e2565b5090565b61010491905b808211156101005760008160009055506001016100e8565b5090565b90565b6105b1806101166000396000f300608060405260043610610057576000357c0100000000000000000000000000000000000000000000000000000000900463ffffffff16806319ff1d211461005c5780634ed3885e14610087578063d97d6630146100b0575b600080fd5b34801561006857600080fd5b506100716100db565b60405161007e9190610493565b60405180910390f35b34801561009357600080fd5b506100ae60048036036100a991908101906103c4565b61017d565b005b3480156100bc57600080fd5b506100c561022b565b6040516100d29190610471565b60405180910390f35b606060008054600181600116156101000203166002900480601f0160208091040260200160405190810160405280929190818152602001828054600181600116156101000203166002900480156101735780601f1061014857610100808354040283529160200191610173565b820191906000526020600020905b81548152906001019060200180831161015657829003601f168201915b5050505050905090565b8060405160200180807f48656c6c6f20000000000000000000000000000000000000000000000000000081525060060182805190602001908083835b6020831015156101de57805182526020820191506020810190506020830392506101b9565b6001836020036101000a038019825116818451168082178552505050505050905001915050604051602081830303815290604052600090805190602001906102279291906102c9565b5050565b60008054600181600116156101000203166002900480601f0160208091040260200160405190810160405280929190818152602001828054600181600116156101000203166002900480156102c15780601f10610296576101008083540402835291602001916102c1565b820191906000526020600020905b8154815290600101906020018083116102a457829003601f168201915b505050505081565b828054600181600116156101000203166002900490600052602060002090601f016020900481019282601f1061030a57805160ff1916838001178555610338565b82800160010185558215610338579182015b8281111561033757825182559160200191906001019061031c565b5b5090506103459190610349565b5090565b61036b91905b8082111561036757600081600090555060010161034f565b5090565b90565b600082601f830112151561038157600080fd5b813561039461038f826104e2565b6104b5565b915080825260208301602083018583830111156103b057600080fd5b6103bb838284610524565b50505092915050565b6000602082840312156103d657600080fd5b600082013567ffffffffffffffff8111156103f057600080fd5b6103fc8482850161036e565b91505092915050565b600061041082610519565b808452610424816020860160208601610533565b61042d81610566565b602085010191505092915050565b60006104468261050e565b80845261045a816020860160208601610533565b61046381610566565b602085010191505092915050565b6000602082019050818103600083015261048b818461043b565b905092915050565b600060208201905081810360008301526104ad8184610405565b905092915050565b6000604051905081810181811067ffffffffffffffff821117156104d857600080fd5b8060405250919050565b600067ffffffffffffffff8211156104f957600080fd5b601f19601f8301169050602081019050919050565b600081519050919050565b600081519050919050565b82818337600083830152505050565b60005b83811015610551578082015181840152602081019050610536565b83811115610560576000848401525b50505050565b6000601f19601f83011690509190505600a265627a7a7230582082398a51bd9765037874de7b1b747f275081780378b03b910a0a02e7db577c6c6c6578706572696d656e74616cf50037",
					"opcodes": "PUSH1 0x80 PUSH1 0x40 MSTORE CALLVALUE DUP1 ISZERO PUSH2 0x10 JUMPI PUSH1 0x0 DUP1 REVERT JUMPDEST POP PUSH1 0x40 DUP1 MLOAD SWAP1 DUP2 ADD PUSH1 0x40 MSTORE DUP1 PUSH1 0xC DUP2 MSTORE PUSH1 0x20 ADD PUSH32 0x48656C6C6F20576F726C64210000000000000000000000000000000000000000 DUP2 MSTORE POP PUSH1 0x0 SWAP1 DUP1 MLOAD SWAP1 PUSH1 0x20 ADD SWAP1 PUSH2 0x5C SWAP3 SWAP2 SWAP1 PUSH2 0x62 JUMP JUMPDEST POP PUSH2 0x107 JUMP JUMPDEST DUP3 DUP1 SLOAD PUSH1 0x1 DUP2 PUSH1 0x1 AND ISZERO PUSH2 0x100 MUL SUB AND PUSH1 0x2 SWAP1 DIV SWAP1 PUSH1 0x0 MSTORE PUSH1 0x20 PUSH1 0x0 KECCAK256 SWAP1 PUSH1 0x1F ADD PUSH1 0x20 SWAP1 DIV DUP2 ADD SWAP3 DUP3 PUSH1 0x1F LT PUSH2 0xA3 JUMPI DUP1 MLOAD PUSH1 0xFF NOT AND DUP4 DUP1 ADD OR DUP6 SSTORE PUSH2 0xD1 JUMP JUMPDEST DUP3 DUP1 ADD PUSH1 0x1 ADD DUP6 SSTORE DUP3 ISZERO PUSH2 0xD1 JUMPI SWAP2 DUP3 ADD JUMPDEST DUP3 DUP2 GT ISZERO PUSH2 0xD0 JUMPI DUP3 MLOAD DUP3 SSTORE SWAP2 PUSH1 0x20 ADD SWAP2 SWAP1 PUSH1 0x1 ADD SWAP1 PUSH2 0xB5 JUMP JUMPDEST JUMPDEST POP SWAP1 POP PUSH2 0xDE SWAP2 SWAP1 PUSH2 0xE2 JUMP JUMPDEST POP SWAP1 JUMP JUMPDEST PUSH2 0x104 SWAP2 SWAP1 JUMPDEST DUP1 DUP3 GT ISZERO PUSH2 0x100 JUMPI PUSH1 0x0 DUP2 PUSH1 0x0 SWAP1 SSTORE POP PUSH1 0x1 ADD PUSH2 0xE8 JUMP JUMPDEST POP SWAP1 JUMP JUMPDEST SWAP1 JUMP JUMPDEST PUSH2 0x5B1 DUP1 PUSH2 0x116 PUSH1 0x0 CODECOPY PUSH1 0x0 RETURN STOP PUSH1 0x80 PUSH1 0x40 MSTORE PUSH1 0x4 CALLDATASIZE LT PUSH2 0x57 JUMPI PUSH1 0x0 CALLDATALOAD PUSH29 0x100000000000000000000000000000000000000000000000000000000 SWAP1 DIV PUSH4 0xFFFFFFFF AND DUP1 PUSH4 0x19FF1D21 EQ PUSH2 0x5C JUMPI DUP1 PUSH4 0x4ED3885E EQ PUSH2 0x87 JUMPI DUP1 PUSH4 0xD97D6630 EQ PUSH2 0xB0 JUMPI JUMPDEST PUSH1 0x0 DUP1 REVERT JUMPDEST CALLVALUE DUP1 ISZERO PUSH2 0x68 JUMPI PUSH1 0x0 DUP1 REVERT JUMPDEST POP PUSH2 0x71 PUSH2 0xDB JUMP JUMPDEST PUSH1 0x40 MLOAD PUSH2 0x7E SWAP2 SWAP1 PUSH2 0x493 JUMP JUMPDEST PUSH1 0x40 MLOAD DUP1 SWAP2 SUB SWAP1 RETURN JUMPDEST CALLVALUE DUP1 ISZERO PUSH2 0x93 JUMPI PUSH1 0x0 DUP1 REVERT JUMPDEST POP PUSH2 0xAE PUSH1 0x4 DUP1 CALLDATASIZE SUB PUSH2 0xA9 SWAP2 SWAP1 DUP2 ADD SWAP1 PUSH2 0x3C4 JUMP JUMPDEST PUSH2 0x17D JUMP JUMPDEST STOP JUMPDEST CALLVALUE DUP1 ISZERO PUSH2 0xBC JUMPI PUSH1 0x0 DUP1 REVERT JUMPDEST POP PUSH2 0xC5 PUSH2 0x22B JUMP JUMPDEST PUSH1 0x40 MLOAD PUSH2 0xD2 SWAP2 SWAP1 PUSH2 0x471 JUMP JUMPDEST PUSH1 0x40 MLOAD DUP1 SWAP2 SUB SWAP1 RETURN JUMPDEST PUSH1 0x60 PUSH1 0x0 DUP1 SLOAD PUSH1 0x1 DUP2 PUSH1 0x1 AND ISZERO PUSH2 0x100 MUL SUB AND PUSH1 0x2 SWAP1 DIV DUP1 PUSH1 0x1F ADD PUSH1 0x20 DUP1 SWAP2 DIV MUL PUSH1 0x20 ADD PUSH1 0x40 MLOAD SWAP1 DUP2 ADD PUSH1 0x40 MSTORE DUP1 SWAP3 SWAP2 SWAP1 DUP2 DUP2 MSTORE PUSH1 0x20 ADD DUP3 DUP1 SLOAD PUSH1 0x1 DUP2 PUSH1 0x1 AND ISZERO PUSH2 0x100 MUL SUB AND PUSH1 0x2 SWAP1 DIV DUP1 ISZERO PUSH2 0x173 JUMPI DUP1 PUSH1 0x1F LT PUSH2 0x148 JUMPI PUSH2 0x100 DUP1 DUP4 SLOAD DIV MUL DUP4 MSTORE SWAP2 PUSH1 0x20 ADD SWAP2 PUSH2 0x173 JUMP JUMPDEST DUP3 ADD SWAP2 SWAP1 PUSH1 0x0 MSTORE PUSH1 0x20 PUSH1 0x0 KECCAK256 SWAP1 JUMPDEST DUP2 SLOAD DUP2 MSTORE SWAP1 PUSH1 0x1 ADD SWAP1 PUSH1 0x20 ADD DUP1 DUP4 GT PUSH2 0x156 JUMPI DUP3 SWAP1 SUB PUSH1 0x1F AND DUP3 ADD SWAP2 JUMPDEST POP POP POP POP POP SWAP1 POP SWAP1 JUMP JUMPDEST DUP1 PUSH1 0x40 MLOAD PUSH1 0x20 ADD DUP1 DUP1 PUSH32 0x48656C6C6F200000000000000000000000000000000000000000000000000000 DUP2 MSTORE POP PUSH1 0x6 ADD DUP3 DUP1 MLOAD SWAP1 PUSH1 0x20 ADD SWAP1 DUP1 DUP4 DUP4 JUMPDEST PUSH1 0x20 DUP4 LT ISZERO ISZERO PUSH2 0x1DE JUMPI DUP1 MLOAD DUP3 MSTORE PUSH1 0x20 DUP3 ADD SWAP2 POP PUSH1 0x20 DUP2 ADD SWAP1 POP PUSH1 0x20 DUP4 SUB SWAP3 POP PUSH2 0x1B9 JUMP JUMPDEST PUSH1 0x1 DUP4 PUSH1 0x20 SUB PUSH2 0x100 EXP SUB DUP1 NOT DUP3 MLOAD AND DUP2 DUP5 MLOAD AND DUP1 DUP3 OR DUP6 MSTORE POP POP POP POP POP POP SWAP1 POP ADD SWAP2 POP POP PUSH1 0x40 MLOAD PUSH1 0x20 DUP2 DUP4 SUB SUB DUP2 MSTORE SWAP1 PUSH1 0x40 MSTORE PUSH1 0x0 SWAP1 DUP1 MLOAD SWAP1 PUSH1 0x20 ADD SWAP1 PUSH2 0x227 SWAP3 SWAP2 SWAP1 PUSH2 0x2C9 JUMP JUMPDEST POP POP JUMP JUMPDEST PUSH1 0x0 DUP1 SLOAD PUSH1 0x1 DUP2 PUSH1 0x1 AND ISZERO PUSH2 0x100 MUL SUB AND PUSH1 0x2 SWAP1 DIV DUP1 PUSH1 0x1F ADD PUSH1 0x20 DUP1 SWAP2 DIV MUL PUSH1 0x20 ADD PUSH1 0x40 MLOAD SWAP1 DUP2 ADD PUSH1 0x40 MSTORE DUP1 SWAP3 SWAP2 SWAP1 DUP2 DUP2 MSTORE PUSH1 0x20 ADD DUP3 DUP1 SLOAD PUSH1 0x1 DUP2 PUSH1 0x1 AND ISZERO PUSH2 0x100 MUL SUB AND PUSH1 0x2 SWAP1 DIV DUP1 ISZERO PUSH2 0x2C1 JUMPI DUP1 PUSH1 0x1F LT PUSH2 0x296 JUMPI PUSH2 0x100 DUP1 DUP4 SLOAD DIV MUL DUP4 MSTORE SWAP2 PUSH1 0x20 ADD SWAP2 PUSH2 0x2C1 JUMP JUMPDEST DUP3 ADD SWAP2 SWAP1 PUSH1 0x0 MSTORE PUSH1 0x20 PUSH1 0x0 KECCAK256 SWAP1 JUMPDEST DUP2 SLOAD DUP2 MSTORE SWAP1 PUSH1 0x1 ADD SWAP1 PUSH1 0x20 ADD DUP1 DUP4 GT PUSH2 0x2A4 JUMPI DUP3 SWAP1 SUB PUSH1 0x1F AND DUP3 ADD SWAP2 JUMPDEST POP POP POP POP POP DUP2 JUMP JUMPDEST DUP3 DUP1 SLOAD PUSH1 0x1 DUP2 PUSH1 0x1 AND ISZERO PUSH2 0x100 MUL SUB AND PUSH1 0x2 SWAP1 DIV SWAP1 PUSH1 0x0 MSTORE PUSH1 0x20 PUSH1 0x0 KECCAK256 SWAP1 PUSH1 0x1F ADD PUSH1 0x20 SWAP1 DIV DUP2 ADD SWAP3 DUP3 PUSH1 0x1F LT PUSH2 0x30A JUMPI DUP1 MLOAD PUSH1 0xFF NOT AND DUP4 DUP1 ADD OR DUP6 SSTORE PUSH2 0x338 JUMP JUMPDEST DUP3 DUP1 ADD PUSH1 0x1 ADD DUP6 SSTORE DUP3 ISZERO PUSH2 0x338 JUMPI SWAP2 DUP3 ADD JUMPDEST DUP3 DUP2 GT ISZERO PUSH2 0x337 JUMPI DUP3 MLOAD DUP3 SSTORE SWAP2 PUSH1 0x20 ADD SWAP2 SWAP1 PUSH1 0x1 ADD SWAP1 PUSH2 0x31C JUMP JUMPDEST JUMPDEST POP SWAP1 POP PUSH2 0x345 SWAP2 SWAP1 PUSH2 0x349 JUMP JUMPDEST POP SWAP1 JUMP JUMPDEST PUSH2 0x36B SWAP2 SWAP1 JUMPDEST DUP1 DUP3 GT ISZERO PUSH2 0x367 JUMPI PUSH1 0x0 DUP2 PUSH1 0x0 SWAP1 SSTORE POP PUSH1 0x1 ADD PUSH2 0x34F JUMP JUMPDEST POP SWAP1 JUMP JUMPDEST SWAP1 JUMP JUMPDEST PUSH1 0x0 DUP3 PUSH1 0x1F DUP4 ADD SLT ISZERO ISZERO PUSH2 0x381 JUMPI PUSH1 0x0 DUP1 REVERT JUMPDEST DUP2 CALLDATALOAD PUSH2 0x394 PUSH2 0x38F DUP3 PUSH2 0x4E2 JUMP JUMPDEST PUSH2 0x4B5 JUMP JUMPDEST SWAP2 POP DUP1 DUP3 MSTORE PUSH1 0x20 DUP4 ADD PUSH1 0x20 DUP4 ADD DUP6 DUP4 DUP4 ADD GT ISZERO PUSH2 0x3B0 JUMPI PUSH1 0x0 DUP1 REVERT JUMPDEST PUSH2 0x3BB DUP4 DUP3 DUP5 PUSH2 0x524 JUMP JUMPDEST POP POP POP SWAP3 SWAP2 POP POP JUMP JUMPDEST PUSH1 0x0 PUSH1 0x20 DUP3 DUP5 SUB SLT ISZERO PUSH2 0x3D6 JUMPI PUSH1 0x0 DUP1 REVERT JUMPDEST PUSH1 0x0 DUP3 ADD CALLDATALOAD PUSH8 0xFFFFFFFFFFFFFFFF DUP2 GT ISZERO PUSH2 0x3F0 JUMPI PUSH1 0x0 DUP1 REVERT JUMPDEST PUSH2 0x3FC DUP5 DUP3 DUP6 ADD PUSH2 0x36E JUMP JUMPDEST SWAP2 POP POP SWAP3 SWAP2 POP POP JUMP JUMPDEST PUSH1 0x0 PUSH2 0x410 DUP3 PUSH2 0x519 JUMP JUMPDEST DUP1 DUP5 MSTORE PUSH2 0x424 DUP2 PUSH1 0x20 DUP7 ADD PUSH1 0x20 DUP7 ADD PUSH2 0x533 JUMP JUMPDEST PUSH2 0x42D DUP2 PUSH2 0x566 JUMP JUMPDEST PUSH1 0x20 DUP6 ADD ADD SWAP2 POP POP SWAP3 SWAP2 POP POP JUMP JUMPDEST PUSH1 0x0 PUSH2 0x446 DUP3 PUSH2 0x50E JUMP JUMPDEST DUP1 DUP5 MSTORE PUSH2 0x45A DUP2 PUSH1 0x20 DUP7 ADD PUSH1 0x20 DUP7 ADD PUSH2 0x533 JUMP JUMPDEST PUSH2 0x463 DUP2 PUSH2 0x566 JUMP JUMPDEST PUSH1 0x20 DUP6 ADD ADD SWAP2 POP POP SWAP3 SWAP2 POP POP JUMP JUMPDEST PUSH1 0x0 PUSH1 0x20 DUP3 ADD SWAP1 POP DUP2 DUP2 SUB PUSH1 0x0 DUP4 ADD MSTORE PUSH2 0x48B DUP2 DUP5 PUSH2 0x43B JUMP JUMPDEST SWAP1 POP SWAP3 SWAP2 POP POP JUMP JUMPDEST PUSH1 0x0 PUSH1 0x20 DUP3 ADD SWAP1 POP DUP2 DUP2 SUB PUSH1 0x0 DUP4 ADD MSTORE PUSH2 0x4AD DUP2 DUP5 PUSH2 0x405 JUMP JUMPDEST SWAP1 POP SWAP3 SWAP2 POP POP JUMP JUMPDEST PUSH1 0x0 PUSH1 0x40 MLOAD SWAP1 POP DUP2 DUP2 ADD DUP2 DUP2 LT PUSH8 0xFFFFFFFFFFFFFFFF DUP3 GT OR ISZERO PUSH2 0x4D8 JUMPI PUSH1 0x0 DUP1 REVERT JUMPDEST DUP1 PUSH1 0x40 MSTORE POP SWAP2 SWAP1 POP JUMP JUMPDEST PUSH1 0x0 PUSH8 0xFFFFFFFFFFFFFFFF DUP3 GT ISZERO PUSH2 0x4F9 JUMPI PUSH1 0x0 DUP1 REVERT JUMPDEST PUSH1 0x1F NOT PUSH1 0x1F DUP4 ADD AND SWAP1 POP PUSH1 0x20 DUP2 ADD SWAP1 POP SWAP2 SWAP1 POP JUMP JUMPDEST PUSH1 0x0 DUP2 MLOAD SWAP1 POP SWAP2 SWAP1 POP JUMP JUMPDEST PUSH1 0x0 DUP2 MLOAD SWAP1 POP SWAP2 SWAP1 POP JUMP JUMPDEST DUP3 DUP2 DUP4 CALLDATACOPY PUSH1 0x0 DUP4 DUP4 ADD MSTORE POP POP POP JUMP JUMPDEST PUSH1 0x0 JUMPDEST DUP4 DUP2 LT ISZERO PUSH2 0x551 JUMPI DUP1 DUP3 ADD MLOAD DUP2 DUP5 ADD MSTORE PUSH1 0x20 DUP2 ADD SWAP1 POP PUSH2 0x536 JUMP JUMPDEST DUP4 DUP2 GT ISZERO PUSH2 0x560 JUMPI PUSH1 0x0 DUP5 DUP5 ADD MSTORE JUMPDEST POP POP POP POP JUMP JUMPDEST PUSH1 0x0 PUSH1 0x1F NOT PUSH1 0x1F DUP4 ADD AND SWAP1 POP SWAP2 SWAP1 POP JUMP STOP LOG2 PUSH6 0x627A7A723058 KECCAK256 DUP3 CODECOPY DUP11 MLOAD 0xbd SWAP8 PUSH6 0x37874DE7B1B PUSH21 0x7F275081780378B03B910A0A02E7DB577C6C6C6578 PUSH17 0x6572696D656E74616CF500370000000000 "
				},
				"gasEstimates": {
					"creation": {
						"codeDepositCost": "291400",
						"executionCost": "infinite",
						"totalCost": "infinite"
					},
					"external": {
						"hello()": "infinite",
						"set(string)": "infinite",
						"yourName()": "infinite"
					}
				},
				"methodIdentifiers": {
					"hello()": "19ff1d21",
					"set(string)": "4ed3885e",
					"yourName()": "d97d6630"
				}
			},
			"userdoc": {
				"methods": {}
			}
		}
	}
}