{
	"": {
		"Greeter": {
			"abi": [
				{
					"constant": true,
					"inputs": [],
					"name": "hello",
					"outputs": [
						{
							"name": "",
							"type": "string"
						}
					],
					"payable": false,
					"type": "function",
					"stateMutability": "view"
				},
				{
					"constant": false,
					"inputs": [
						{
							"name": "name",
							"type": "string"
						}
					],
					"name": "set",
					"outputs": [],
					"payable": false,
					"type": "function",
					"stateMutability": "nonpayable"
				},
				{
					"constant": true,
					"inputs": [],
					"name": "yourName",
					"outputs": [
						{
							"name": "",
							"type": "string"
						}
					],
					"payable": false,
					"type": "function",
					"stateMutability": "view"
				},
				{
					"inputs": [],
					"type": "constructor",
					"payable": true,
					"stateMutability": "payable"
				}
			],
			"evm": {
				"bytecode": {
					"object": "60606040525b604060405190810160405280600c81526020017f48656c6c6f20576f726c6421000000000000000000000000000000000000000081526020015060006000509080519060200190828054600181600116156101000203166002900490600052602060002090601f016020900481019282601f10608b57805160ff191683800117855560b9565b8280016001018555821560b9579182015b8281111560b8578251826000505591602001919060010190609c565b5b50905060e0919060c4565b8082111560dc576000818150600090555060010160c4565b5090565b50505b6103bb806100f16000396000f360606040526000357c01000000000000000000000000000000000000000000000000000000009004806319ff1d21146100525780634ed3885e146100d2578063d97d66301461012d5761004d565b610002565b346100025761006460048050506101ad565b60405180806020018281038252838181518152602001915080519060200190808383829060006004602084601f0104600302600f01f150905090810190601f1680156100c45780820380516001836020036101000a031916815260200191505b509250505060405180910390f35b346100025761012b6004808035906020019082018035906020019191908080601f016020809104026020016040519081016040528093929190818152602001838380828437820191505050505050909091905050610269565b005b346100025761013f600480505061031a565b60405180806020018281038252838181518152602001915080519060200190808383829060006004602084601f0104600302600f01f150905090810190601f16801561019f5780820380516001836020036101000a031916815260200191505b509250505060405180910390f35b602060405190810160405280600081526020015060006000508054600181600116156101000203166002900480601f01602080910402602001604051908101604052809291908181526020018280546001816001161561010002031660029004801561025a5780601f1061022f5761010080835404028352916020019161025a565b820191906000526020600020905b81548152906001019060200180831161023d57829003601f168201915b50505050509050610266565b90565b8060006000509080519060200190828054600181600116156101000203166002900490600052602060002090601f016020900481019282601f106102b857805160ff19168380011785556102e9565b828001600101855582156102e9579182015b828111156102e85782518260005055916020019190600101906102ca565b5b50905061031491906102f6565b8082111561031057600081815060009055506001016102f6565b5090565b50505b50565b60006000508054600181600116156101000203166002900480601f0160208091040260200160405190810160405280929190818152602001828054600181600116156101000203166002900480156103b35780601f10610388576101008083540402835291602001916103b3565b820191906000526020600020905b81548152906001019060200180831161039657829003601f168201915b50505050508156",
					"opcodes": "PUSH1 0x60 PUSH1 0x40 MSTORE JUMPDEST PUSH1 0x40 PUSH1 0x40 MLOAD SWAP1 DUP2 ADD PUSH1 0x40 MSTORE DUP1 PUSH1 0xC DUP2 MSTORE PUSH1 0x20 ADD PUSH32 0x48656C6C6F20576F726C64210000000000000000000000000000000000000000 DUP2 MSTORE PUSH1 0x20 ADD POP PUSH1 0x0 PUSH1 0x0 POP SWAP1 DUP1 MLOAD SWAP1 PUSH1 0x20 ADD SWAP1 DUP3 DUP1 SLOAD PUSH1 0x1 DUP2 PUSH1 0x1 AND ISZERO PUSH2 0x100 MUL SUB AND PUSH1 0x2 SWAP1 DIV SWAP1 PUSH1 0x0 MSTORE PUSH1 0x20 PUSH1 0x0 SHA3 SWAP1 PUSH1 0x1F ADD PUSH1 0x20 SWAP1 DIV DUP2 ADD SWAP3 DUP3 PUSH1 0x1F LT PUSH1 0x8B JUMPI DUP1 MLOAD PUSH1 0xFF NOT AND DUP4 DUP1 ADD OR DUP6 SSTORE PUSH1 0xB9 JUMP JUMPDEST DUP3 DUP1 ADD PUSH1 0x1 ADD DUP6 SSTORE DUP3 ISZERO PUSH1 0xB9 JUMPI SWAP2 DUP3 ADD JUMPDEST DUP3 DUP2 GT ISZERO PUSH1 0xB8 JUMPI DUP3 MLOAD DUP3 PUSH1 0x0 POP SSTORE SWAP2 PUSH1 0x20 ADD SWAP2 SWAP1 PUSH1 0x1 ADD SWAP1 PUSH1 0x9C JUMP JUMPDEST JUMPDEST POP SWAP1 POP PUSH1 0xE0 SWAP2 SWAP1 PUSH1 0xC4 JUMP JUMPDEST DUP1 DUP3 GT ISZERO PUSH1 0xDC JUMPI PUSH1 0x0 DUP2 DUP2 POP PUSH1 0x0 SWAP1 SSTORE POP PUSH1 0x1 ADD PUSH1 0xC4 JUMP JUMPDEST POP SWAP1 JUMP JUMPDEST POP POP JUMPDEST PUSH2 0x3BB DUP1 PUSH2 0xF1 PUSH1 0x0 CODECOPY PUSH1 0x0 RETURN PUSH1 0x60 PUSH1 0x40 MSTORE PUSH1 0x0 CALLDATALOAD PUSH29 0x100000000000000000000000000000000000000000000000000000000 SWAP1 DIV DUP1 PUSH4 0x19FF1D21 EQ PUSH2 0x52 JUMPI DUP1 PUSH4 0x4ED3885E EQ PUSH2 0xD2 JUMPI DUP1 PUSH4 0xD97D6630 EQ PUSH2 0x12D JUMPI PUSH2 0x4D JUMP JUMPDEST PUSH2 0x2 JUMP JUMPDEST CALLVALUE PUSH2 0x2 JUMPI PUSH2 0x64 PUSH1 0x4 DUP1 POP POP PUSH2 0x1AD JUMP JUMPDEST PUSH1 0x40 MLOAD DUP1 DUP1 PUSH1 0x20 ADD DUP3 DUP2 SUB DUP3 MSTORE DUP4 DUP2 DUP2 MLOAD DUP2 MSTORE PUSH1 0x20 ADD SWAP2 POP DUP1 MLOAD SWAP1 PUSH1 0x20 ADD SWAP1 DUP1 DUP4 DUP4 DUP3 SWAP1 PUSH1 0x0 PUSH1 0x4 PUSH1 0x20 DUP5 PUSH1 0x1F ADD DIV PUSH1 0x3 MUL PUSH1 0xF ADD CALL POP SWAP1 POP SWAP1 DUP2 ADD SWAP1 PUSH1 0x1F AND DUP1 ISZERO PUSH2 0xC4 JUMPI DUP1 DUP3 SUB DUP1 MLOAD PUSH1 0x1 DUP4 PUSH1 0x20 SUB PUSH2 0x100 EXP SUB NOT AND DUP2 MSTORE PUSH1 0x20 ADD SWAP2 POP JUMPDEST POP SWAP3 POP POP POP PUSH1 0x40 MLOAD DUP1 SWAP2 SUB SWAP1 RETURN JUMPDEST CALLVALUE PUSH2 0x2 JUMPI PUSH2 0x12B PUSH1 0x4 DUP1 DUP1 CALLDATALOAD SWAP1 PUSH1 0x20 ADD SWAP1 DUP3 ADD DUP1 CALLDATALOAD SWAP1 PUSH1 0x20 ADD SWAP2 SWAP2 SWAP1 DUP1 DUP1 PUSH1 0x1F ADD PUSH1 0x20 DUP1 SWAP2 DIV MUL PUSH1 0x20 ADD PUSH1 0x40 MLOAD SWAP1 DUP2 ADD PUSH1 0x40 MSTORE DUP1 SWAP4 SWAP3 SWAP2 SWAP1 DUP2 DUP2 MSTORE PUSH1 0x20 ADD DUP4 DUP4 DUP1 DUP3 DUP5 CALLDATACOPY DUP3 ADD SWAP2 POP POP POP POP POP POP SWAP1 SWAP1 SWAP2 SWAP1 POP POP PUSH2 0x269 JUMP JUMPDEST STOP JUMPDEST CALLVALUE PUSH2 0x2 JUMPI PUSH2 0x13F PUSH1 0x4 DUP1 POP POP PUSH2 0x31A JUMP JUMPDEST PUSH1 0x40 MLOAD DUP1 DUP1 PUSH1 0x20 ADD DUP3 DUP2 SUB DUP3 MSTORE DUP4 DUP2 DUP2 MLOAD DUP2 MSTORE PUSH1 0x20 ADD SWAP2 POP DUP1 MLOAD SWAP1 PUSH1 0x20 ADD SWAP1 DUP1 DUP4 DUP4 DUP3 SWAP1 PUSH1 0x0 PUSH1 0x4 PUSH1 0x20 DUP5 PUSH1 0x1F ADD DIV PUSH1 0x3 MUL PUSH1 0xF ADD CALL POP SWAP1 POP SWAP1 DUP2 ADD SWAP1 PUSH1 0x1F AND DUP1 ISZERO PUSH2 0x19F JUMPI DUP1 DUP3 SUB DUP1 MLOAD PUSH1 0x1 DUP4 PUSH1 0x20 SUB PUSH2 0x100 EXP SUB NOT AND DUP2 MSTORE PUSH1 0x20 ADD SWAP2 POP JUMPDEST POP SWAP3 POP POP POP PUSH1 0x40 MLOAD DUP1 SWAP2 SUB SWAP1 RETURN JUMPDEST PUSH1 0x20 PUSH1 0x40 MLOAD SWAP1 DUP2 ADD PUSH1 0x40 MSTORE DUP1 PUSH1 0x0 DUP2 MSTORE PUSH1 0x20 ADD POP PUSH1 0x0 PUSH1 0x0 POP DUP1 SLOAD PUSH1 0x1 DUP2 PUSH1 0x1 AND ISZERO PUSH2 0x100 MUL SUB AND PUSH1 0x2 SWAP1 DIV DUP1 PUSH1 0x1F ADD PUSH1 0x20 DUP1 SWAP2 DIV MUL PUSH1 0x20 ADD PUSH1 0x40 MLOAD SWAP1 DUP2 ADD PUSH1 0x40 MSTORE DUP1 SWAP3 SWAP2 SWAP1 DUP2 DUP2 MSTORE PUSH1 0x20 ADD DUP3 DUP1 SLOAD PUSH1 0x1 DUP2 PUSH1 0x1 AND ISZERO PUSH2 0x100 MUL SUB AND PUSH1 0x2 SWAP1 DIV DUP1 ISZERO PUSH2 0x25A JUMPI DUP1 PUSH1 0x1F LT PUSH2 0x22F JUMPI PUSH2 0x100 DUP1 DUP4 SLOAD DIV MUL DUP4 MSTORE SWAP2 PUSH1 0x20 ADD SWAP2 PUSH2 0x25A JUMP JUMPDEST DUP3 ADD SWAP2 SWAP1 PUSH1 0x0 MSTORE PUSH1 0x20 PUSH1 0x0 SHA3 SWAP1 JUMPDEST DUP2 SLOAD DUP2 MSTORE SWAP1 PUSH1 0x1 ADD SWAP1 PUSH1 0x20 ADD DUP1 DUP4 GT PUSH2 0x23D JUMPI DUP3 SWAP1 SUB PUSH1 0x1F AND DUP3 ADD SWAP2 JUMPDEST POP POP POP POP POP SWAP1 POP PUSH2 0x266 JUMP JUMPDEST SWAP1 JUMP JUMPDEST DUP1 PUSH1 0x0 PUSH1 0x0 POP SWAP1 DUP1 MLOAD SWAP1 PUSH1 0x20 ADD SWAP1 DUP3 DUP1 SLOAD PUSH1 0x1 DUP2 PUSH1 0x1 AND ISZERO PUSH2 0x100 MUL SUB AND PUSH1 0x2 SWAP1 DIV SWAP1 PUSH1 0x0 MSTORE PUSH1 0x20 PUSH1 0x0 SHA3 SWAP1 PUSH1 0x1F ADD PUSH1 0x20 SWAP1 DIV DUP2 ADD SWAP3 DUP3 PUSH1 0x1F LT PUSH2 0x2B8 JUMPI DUP1 MLOAD PUSH1 0xFF NOT AND DUP4 DUP1 ADD OR DUP6 SSTORE PUSH2 0x2E9 JUMP JUMPDEST DUP3 DUP1 ADD PUSH1 0x1 ADD DUP6 SSTORE DUP3 ISZERO PUSH2 0x2E9 JUMPI SWAP2 DUP3 ADD JUMPDEST DUP3 DUP2 GT ISZERO PUSH2 0x2E8 JUMPI DUP3 MLOAD DUP3 PUSH1 0x0 POP SSTORE SWAP2 PUSH1 0x20 ADD SWAP2 SWAP1 PUSH1 0x1 ADD SWAP1 PUSH2 0x2CA JUMP JUMPDEST JUMPDEST POP SWAP1 POP PUSH2 0x314 SWAP2 SWAP1 PUSH2 0x2F6 JUMP JUMPDEST DUP1 DUP3 GT ISZERO PUSH2 0x310 JUMPI PUSH1 0x0 DUP2 DUP2 POP PUSH1 0x0 SWAP1 SSTORE POP PUSH1 0x1 ADD PUSH2 0x2F6 JUMP JUMPDEST POP SWAP1 JUMP JUMPDEST POP POP JUMPDEST POP JUMP JUMPDEST PUSH1 0x0 PUSH1 0x0 POP DUP1 SLOAD PUSH1 0x1 DUP2 PUSH1 0x1 AND ISZERO PUSH2 0x100 MUL SUB AND PUSH1 0x2 SWAP1 DIV DUP1 PUSH1 0x1F ADD PUSH1 0x20 DUP1 SWAP2 DIV MUL PUSH1 0x20 ADD PUSH1 0x40 MLOAD SWAP1 DUP2 ADD PUSH1 0x40 MSTORE DUP1 SWAP3 SWAP2 SWAP1 DUP2 DUP2 MSTORE PUSH1 0x20 ADD DUP3 DUP1 SLOAD PUSH1 0x1 DUP2 PUSH1 0x1 AND ISZERO PUSH2 0x100 MUL SUB AND PUSH1 0x2 SWAP1 DIV DUP1 ISZERO PUSH2 0x3B3 JUMPI DUP1 PUSH1 0x1F LT PUSH2 0x388 JUMPI PUSH2 0x100 DUP1 DUP4 SLOAD DIV MUL DUP4 MSTORE SWAP2 PUSH1 0x20 ADD SWAP2 PUSH2 0x3B3 JUMP JUMPDEST DUP3 ADD SWAP2 SWAP1 PUSH1 0x0 MSTORE PUSH1 0x20 PUSH1 0x0 SHA3 SWAP1 JUMPDEST DUP2 SLOAD DUP2 MSTORE SWAP1 PUSH1 0x1 ADD SWAP1 PUSH1 0x20 ADD DUP1 DUP4 GT PUSH2 0x396 JUMPI DUP3 SWAP1 SUB PUSH1 0x1F AND DUP3 ADD SWAP2 JUMPDEST POP POP POP POP POP DUP2 JUMP ",
					"linkReferences": {}
				},
				"methodIdentifiers": {
					"hello()": "19ff1d21",
					"set(string)": "4ed3885e",
					"yourName()": "d97d6630"
				},
				"gasEstimates": {
					"creation": {
						"codeDepositCost": "191000",
						"executionCost": "infinite"
					},
					"internal": {},
					"external": {
						"hello()": "infinite",
						"set(string)": "infinite",
						"yourName()": "infinite"
					}
				}
			}
		}
	}
}